{
  "_format": "hh-sol-artifact-1",
  "contractName": "Web3Mint",
  "sourceName": "contracts/Web3Mint.sol",
  "abi": [
    {
      "inputs": [],
      "stateMutability": "nonpayable",
      "type": "constructor"
    },
    {
      "anonymous": false,
      "inputs": [
        {
          "indexed": true,
          "internalType": "address",
          "name": "owner",
          "type": "address"
        },
        {
          "indexed": true,
          "internalType": "address",
          "name": "approved",
          "type": "address"
        },
        {
          "indexed": true,
          "internalType": "uint256",
          "name": "tokenId",
          "type": "uint256"
        }
      ],
      "name": "Approval",
      "type": "event"
    },
    {
      "anonymous": false,
      "inputs": [
        {
          "indexed": true,
          "internalType": "address",
          "name": "owner",
          "type": "address"
        },
        {
          "indexed": true,
          "internalType": "address",
          "name": "operator",
          "type": "address"
        },
        {
          "indexed": false,
          "internalType": "bool",
          "name": "approved",
          "type": "bool"
        }
      ],
      "name": "ApprovalForAll",
      "type": "event"
    },
    {
      "anonymous": false,
      "inputs": [
        {
          "indexed": true,
          "internalType": "address",
          "name": "from",
          "type": "address"
        },
        {
          "indexed": true,
          "internalType": "address",
          "name": "to",
          "type": "address"
        },
        {
          "indexed": true,
          "internalType": "uint256",
          "name": "tokenId",
          "type": "uint256"
        }
      ],
      "name": "Transfer",
      "type": "event"
    },
    {
      "inputs": [
        {
          "internalType": "address",
          "name": "to",
          "type": "address"
        },
        {
          "internalType": "uint256",
          "name": "tokenId",
          "type": "uint256"
        }
      ],
      "name": "approve",
      "outputs": [],
      "stateMutability": "nonpayable",
      "type": "function"
    },
    {
      "inputs": [
        {
          "internalType": "address",
          "name": "owner",
          "type": "address"
        }
      ],
      "name": "balanceOf",
      "outputs": [
        {
          "internalType": "uint256",
          "name": "",
          "type": "uint256"
        }
      ],
      "stateMutability": "view",
      "type": "function"
    },
    {
      "inputs": [
        {
          "internalType": "uint256",
          "name": "tokenId",
          "type": "uint256"
        }
      ],
      "name": "getApproved",
      "outputs": [
        {
          "internalType": "address",
          "name": "",
          "type": "address"
        }
      ],
      "stateMutability": "view",
      "type": "function"
    },
    {
      "inputs": [
        {
          "internalType": "address",
          "name": "owner",
          "type": "address"
        },
        {
          "internalType": "address",
          "name": "operator",
          "type": "address"
        }
      ],
      "name": "isApprovedForAll",
      "outputs": [
        {
          "internalType": "bool",
          "name": "",
          "type": "bool"
        }
      ],
      "stateMutability": "view",
      "type": "function"
    },
    {
      "inputs": [
        {
          "internalType": "string",
          "name": "name",
          "type": "string"
        },
        {
          "internalType": "string",
          "name": "imageURL",
          "type": "string"
        }
      ],
      "name": "mintIpfsNFT",
      "outputs": [],
      "stateMutability": "nonpayable",
      "type": "function"
    },
    {
      "inputs": [],
      "name": "name",
      "outputs": [
        {
          "internalType": "string",
          "name": "",
          "type": "string"
        }
      ],
      "stateMutability": "view",
      "type": "function"
    },
    {
      "inputs": [
        {
          "internalType": "uint256",
          "name": "tokenId",
          "type": "uint256"
        }
      ],
      "name": "ownerOf",
      "outputs": [
        {
          "internalType": "address",
          "name": "",
          "type": "address"
        }
      ],
      "stateMutability": "view",
      "type": "function"
    },
    {
      "inputs": [
        {
          "internalType": "address",
          "name": "from",
          "type": "address"
        },
        {
          "internalType": "address",
          "name": "to",
          "type": "address"
        },
        {
          "internalType": "uint256",
          "name": "tokenId",
          "type": "uint256"
        }
      ],
      "name": "safeTransferFrom",
      "outputs": [],
      "stateMutability": "nonpayable",
      "type": "function"
    },
    {
      "inputs": [
        {
          "internalType": "address",
          "name": "from",
          "type": "address"
        },
        {
          "internalType": "address",
          "name": "to",
          "type": "address"
        },
        {
          "internalType": "uint256",
          "name": "tokenId",
          "type": "uint256"
        },
        {
          "internalType": "bytes",
          "name": "data",
          "type": "bytes"
        }
      ],
      "name": "safeTransferFrom",
      "outputs": [],
      "stateMutability": "nonpayable",
      "type": "function"
    },
    {
      "inputs": [
        {
          "internalType": "address",
          "name": "operator",
          "type": "address"
        },
        {
          "internalType": "bool",
          "name": "approved",
          "type": "bool"
        }
      ],
      "name": "setApprovalForAll",
      "outputs": [],
      "stateMutability": "nonpayable",
      "type": "function"
    },
    {
      "inputs": [
        {
          "internalType": "bytes4",
          "name": "interfaceId",
          "type": "bytes4"
        }
      ],
      "name": "supportsInterface",
      "outputs": [
        {
          "internalType": "bool",
          "name": "",
          "type": "bool"
        }
      ],
      "stateMutability": "view",
      "type": "function"
    },
    {
      "inputs": [],
      "name": "symbol",
      "outputs": [
        {
          "internalType": "string",
          "name": "",
          "type": "string"
        }
      ],
      "stateMutability": "view",
      "type": "function"
    },
    {
      "inputs": [
        {
          "internalType": "uint256",
          "name": "_tokenId",
          "type": "uint256"
        }
      ],
      "name": "tokenURI",
      "outputs": [
        {
          "internalType": "string",
          "name": "",
          "type": "string"
        }
      ],
      "stateMutability": "view",
      "type": "function"
    },
    {
      "inputs": [
        {
          "internalType": "address",
          "name": "from",
          "type": "address"
        },
        {
          "internalType": "address",
          "name": "to",
          "type": "address"
        },
        {
          "internalType": "uint256",
          "name": "tokenId",
          "type": "uint256"
        }
      ],
      "name": "transferFrom",
      "outputs": [],
      "stateMutability": "nonpayable",
      "type": "function"
    }
  ],
  "bytecode": "0x60806040523480156200001157600080fd5b506040518060400160405280600581526020017f6d794e46540000000000000000000000000000000000000000000000000000008152506040518060400160405280600381526020017f4d594e0000000000000000000000000000000000000000000000000000000000815250816000908051906020019062000096929190620001cf565b508060019080519060200190620000af929190620001cf565b505050620000fd6040518060400160405280601781526020017f54686973206973206d79204e465420636f6e74726163740000000000000000008152506200010360201b62000ac31760201c565b620003ac565b620001a3816040516024016200011a919062000323565b6040516020818303038152906040527f41304fac000000000000000000000000000000000000000000000000000000007bffffffffffffffffffffffffffffffffffffffffffffffffffffffff19166020820180517bffffffffffffffffffffffffffffffffffffffffffffffffffffffff8381831617835250505050620001a660201b60201c565b50565b60008151905060006a636f6e736f6c652e6c6f679050602083016000808483855afa5050505050565b828054620001dd9062000376565b90600052602060002090601f0160209004810192826200020157600085556200024d565b82601f106200021c57805160ff19168380011785556200024d565b828001600101855582156200024d579182015b828111156200024c5782518255916020019190600101906200022f565b5b5090506200025c919062000260565b5090565b5b808211156200027b57600081600090555060010162000261565b5090565b600081519050919050565b600082825260208201905092915050565b60005b83811015620002bb5780820151818401526020810190506200029e565b83811115620002cb576000848401525b50505050565b6000601f19601f8301169050919050565b6000620002ef826200027f565b620002fb81856200028a565b93506200030d8185602086016200029b565b6200031881620002d1565b840191505092915050565b600060208201905081810360008301526200033f8184620002e2565b905092915050565b7f4e487b7100000000000000000000000000000000000000000000000000000000600052602260045260246000fd5b600060028204905060018216806200038f57607f821691505b60208210811415620003a657620003a562000347565b5b50919050565b612e5680620003bc6000396000f3fe608060405234801561001057600080fd5b50600436106100ea5760003560e01c806370a082311161008c578063b88d4fde11610066578063b88d4fde1461025b578063c87b56dd14610277578063e985e9c5146102a7578063eb00195d146102d7576100ea565b806370a08231146101f157806395d89b4114610221578063a22cb4651461023f576100ea565b8063095ea7b3116100c8578063095ea7b31461016d57806323b872dd1461018957806342842e0e146101a55780636352211e146101c1576100ea565b806301ffc9a7146100ef57806306fdde031461011f578063081812fc1461013d575b600080fd5b61010960048036038101906101049190611b0e565b6102f3565b6040516101169190611b56565b60405180910390f35b6101276103d5565b6040516101349190611c0a565b60405180910390f35b61015760048036038101906101529190611c62565b610467565b6040516101649190611cd0565b60405180910390f35b61018760048036038101906101829190611d17565b6104ad565b005b6101a3600480360381019061019e9190611d57565b6105c5565b005b6101bf60048036038101906101ba9190611d57565b610625565b005b6101db60048036038101906101d69190611c62565b610645565b6040516101e89190611cd0565b60405180910390f35b61020b60048036038101906102069190611daa565b6106f7565b6040516102189190611de6565b60405180910390f35b6102296107af565b6040516102369190611c0a565b60405180910390f35b61025960048036038101906102549190611e2d565b610841565b005b61027560048036038101906102709190611fa2565b610857565b005b610291600480360381019061028c9190611c62565b6108b9565b60405161029e9190611c0a565b60405180910390f35b6102c160048036038101906102bc9190612025565b610969565b6040516102ce9190611b56565b60405180910390f35b6102f160048036038101906102ec9190612106565b6109fd565b005b60007f80ac58cd000000000000000000000000000000000000000000000000000000007bffffffffffffffffffffffffffffffffffffffffffffffffffffffff1916827bffffffffffffffffffffffffffffffffffffffffffffffffffffffff191614806103be57507f5b5e139f000000000000000000000000000000000000000000000000000000007bffffffffffffffffffffffffffffffffffffffffffffffffffffffff1916827bffffffffffffffffffffffffffffffffffffffffffffffffffffffff1916145b806103ce57506103cd82610b5c565b5b9050919050565b6060600080546103e4906121ad565b80601f0160208091040260200160405190810160405280929190818152602001828054610410906121ad565b801561045d5780601f106104325761010080835404028352916020019161045d565b820191906000526020600020905b81548152906001019060200180831161044057829003601f168201915b5050505050905090565b600061047282610bc6565b6004600083815260200190815260200160002060009054906101000a900473ffffffffffffffffffffffffffffffffffffffff169050919050565b60006104b882610645565b90508073ffffffffffffffffffffffffffffffffffffffff168373ffffffffffffffffffffffffffffffffffffffff161415610529576040517f08c379a000000000000000000000000000000000000000000000000000000000815260040161052090612251565b60405180910390fd5b8073ffffffffffffffffffffffffffffffffffffffff16610548610c11565b73ffffffffffffffffffffffffffffffffffffffff161480610577575061057681610571610c11565b610969565b5b6105b6576040517f08c379a00000000000000000000000000000000000000000000000000000000081526004016105ad906122e3565b60405180910390fd5b6105c08383610c19565b505050565b6105d66105d0610c11565b82610cd2565b610615576040517f08c379a000000000000000000000000000000000000000000000000000000000815260040161060c90612375565b60405180910390fd5b610620838383610d67565b505050565b61064083838360405180602001604052806000815250610857565b505050565b6000806002600084815260200190815260200160002060009054906101000a900473ffffffffffffffffffffffffffffffffffffffff169050600073ffffffffffffffffffffffffffffffffffffffff168173ffffffffffffffffffffffffffffffffffffffff1614156106ee576040517f08c379a00000000000000000000000000000000000000000000000000000000081526004016106e5906123e1565b60405180910390fd5b80915050919050565b60008073ffffffffffffffffffffffffffffffffffffffff168273ffffffffffffffffffffffffffffffffffffffff161415610768576040517f08c379a000000000000000000000000000000000000000000000000000000000815260040161075f90612473565b60405180910390fd5b600360008373ffffffffffffffffffffffffffffffffffffffff1673ffffffffffffffffffffffffffffffffffffffff168152602001908152602001600020549050919050565b6060600180546107be906121ad565b80601f01602080910402602001604051908101604052809291908181526020018280546107ea906121ad565b80156108375780601f1061080c57610100808354040283529160200191610837565b820191906000526020600020905b81548152906001019060200180831161081a57829003601f168201915b5050505050905090565b61085361084c610c11565b8383610fce565b5050565b610868610862610c11565b83610cd2565b6108a7576040517f08c379a000000000000000000000000000000000000000000000000000000000815260040161089e90612375565b60405180910390fd5b6108b38484848461113b565b50505050565b60606000610939600684815481106108d4576108d3612493565b5b90600052602060002090600202016000016108ee85611197565b6006868154811061090257610901612493565b5b9060005260206000209060020201600101604051602001610925939291906126e8565b6040516020818303038152906040526112f8565b905060008160405160200161094e9190612791565b60405160208183030381529060405290508092505050919050565b6000600560008473ffffffffffffffffffffffffffffffffffffffff1673ffffffffffffffffffffffffffffffffffffffff16815260200190815260200160002060008373ffffffffffffffffffffffffffffffffffffffff1673ffffffffffffffffffffffffffffffffffffffff16815260200190815260200160002060009054906101000a900460ff16905092915050565b6000610a096007611490565b9050610a15338261149e565b600660405180604001604052808581526020018481525090806001815401808255809150506001900390600052602060002090600202016000909190919091506000820151816000019080519060200190610a719291906119ff565b506020820151816001019080519060200190610a8e9291906119ff565b505050610ab4604051806060016040528060258152602001612dbc6025913982336114bc565b610abe600761155b565b505050565b610b5981604051602401610ad79190611c0a565b6040516020818303038152906040527f41304fac000000000000000000000000000000000000000000000000000000007bffffffffffffffffffffffffffffffffffffffffffffffffffffffff19166020820180517bffffffffffffffffffffffffffffffffffffffffffffffffffffffff8381831617835250505050611571565b50565b60007f01ffc9a7000000000000000000000000000000000000000000000000000000007bffffffffffffffffffffffffffffffffffffffffffffffffffffffff1916827bffffffffffffffffffffffffffffffffffffffffffffffffffffffff1916149050919050565b610bcf8161159a565b610c0e576040517f08c379a0000000000000000000000000000000000000000000000000000000008152600401610c05906123e1565b60405180910390fd5b50565b600033905090565b816004600083815260200190815260200160002060006101000a81548173ffffffffffffffffffffffffffffffffffffffff021916908373ffffffffffffffffffffffffffffffffffffffff160217905550808273ffffffffffffffffffffffffffffffffffffffff16610c8c83610645565b73ffffffffffffffffffffffffffffffffffffffff167f8c5be1e5ebec7d5bd14f71427d1e84f3dd0314c0f7b2291e5b200ac8c7c3b92560405160405180910390a45050565b600080610cde83610645565b90508073ffffffffffffffffffffffffffffffffffffffff168473ffffffffffffffffffffffffffffffffffffffff161480610d205750610d1f8185610969565b5b80610d5e57508373ffffffffffffffffffffffffffffffffffffffff16610d4684610467565b73ffffffffffffffffffffffffffffffffffffffff16145b91505092915050565b8273ffffffffffffffffffffffffffffffffffffffff16610d8782610645565b73ffffffffffffffffffffffffffffffffffffffff1614610ddd576040517f08c379a0000000000000000000000000000000000000000000000000000000008152600401610dd490612825565b60405180910390fd5b600073ffffffffffffffffffffffffffffffffffffffff168273ffffffffffffffffffffffffffffffffffffffff161415610e4d576040517f08c379a0000000000000000000000000000000000000000000000000000000008152600401610e44906128b7565b60405180910390fd5b610e58838383611606565b610e63600082610c19565b6001600360008573ffffffffffffffffffffffffffffffffffffffff1673ffffffffffffffffffffffffffffffffffffffff1681526020019081526020016000206000828254610eb39190612906565b925050819055506001600360008473ffffffffffffffffffffffffffffffffffffffff1673ffffffffffffffffffffffffffffffffffffffff1681526020019081526020016000206000828254610f0a919061293a565b92505081905550816002600083815260200190815260200160002060006101000a81548173ffffffffffffffffffffffffffffffffffffffff021916908373ffffffffffffffffffffffffffffffffffffffff160217905550808273ffffffffffffffffffffffffffffffffffffffff168473ffffffffffffffffffffffffffffffffffffffff167fddf252ad1be2c89b69c2b068fc378daa952ba7f163c4a11628f55a4df523b3ef60405160405180910390a4610fc983838361160b565b505050565b8173ffffffffffffffffffffffffffffffffffffffff168373ffffffffffffffffffffffffffffffffffffffff16141561103d576040517f08c379a0000000000000000000000000000000000000000000000000000000008152600401611034906129dc565b60405180910390fd5b80600560008573ffffffffffffffffffffffffffffffffffffffff1673ffffffffffffffffffffffffffffffffffffffff16815260200190815260200160002060008473ffffffffffffffffffffffffffffffffffffffff1673ffffffffffffffffffffffffffffffffffffffff16815260200190815260200160002060006101000a81548160ff0219169083151502179055508173ffffffffffffffffffffffffffffffffffffffff168373ffffffffffffffffffffffffffffffffffffffff167f17307eab39ab6107e8899845ad3d59bd9653f200f220920489ca2b5937696c318360405161112e9190611b56565b60405180910390a3505050565b611146848484610d67565b61115284848484611610565b611191576040517f08c379a000000000000000000000000000000000000000000000000000000000815260040161118890612a6e565b60405180910390fd5b50505050565b606060008214156111df576040518060400160405280600181526020017f300000000000000000000000000000000000000000000000000000000000000081525090506112f3565b600082905060005b600082146112115780806111fa90612a8e565b915050600a8261120a9190612b06565b91506111e7565b60008167ffffffffffffffff81111561122d5761122c611e77565b5b6040519080825280601f01601f19166020018201604052801561125f5781602001600182028036833780820191505090505b5090505b600085146112ec576001826112789190612906565b9150600a856112879190612b37565b6030611293919061293a565b60f81b8183815181106112a9576112a8612493565b5b60200101907effffffffffffffffffffffffffffffffffffffffffffffffffffffffffffff1916908160001a905350600a856112e59190612b06565b9450611263565b8093505050505b919050565b60606000825190506000811415611321576040518060200160405280600081525091505061148b565b60006003600283611332919061293a565b61133c9190612b06565b60046113489190612b68565b90506000602082611359919061293a565b67ffffffffffffffff81111561137257611371611e77565b5b6040519080825280601f01601f1916602001820160405280156113a45781602001600182028036833780820191505090505b5090506000604051806060016040528060408152602001612de1604091399050600181016020830160005b868110156114485760038101905062ffffff818a015116603f8160121c168401518060081b905060ff603f83600c1c1686015116810190508060081b905060ff603f8360061c1686015116810190508060081b905060ff603f831686015116810190508060e01b905080845260048401935050506113cf565b50600386066001811461146257600281146114725761147d565b613d3d60f01b600283035261147d565b603d60f81b60018303525b508484525050819450505050505b919050565b600081600001549050919050565b6114b88282604051806020016040528060008152506117a7565b5050565b6115568383836040516024016114d493929190612bc2565b6040516020818303038152906040527f1c7ec448000000000000000000000000000000000000000000000000000000007bffffffffffffffffffffffffffffffffffffffffffffffffffffffff19166020820180517bffffffffffffffffffffffffffffffffffffffffffffffffffffffff8381831617835250505050611571565b505050565b6001816000016000828254019250508190555050565b60008151905060006a636f6e736f6c652e6c6f679050602083016000808483855afa5050505050565b60008073ffffffffffffffffffffffffffffffffffffffff166002600084815260200190815260200160002060009054906101000a900473ffffffffffffffffffffffffffffffffffffffff1673ffffffffffffffffffffffffffffffffffffffff1614159050919050565b505050565b505050565b60006116318473ffffffffffffffffffffffffffffffffffffffff16611802565b1561179a578373ffffffffffffffffffffffffffffffffffffffff1663150b7a0261165a610c11565b8786866040518563ffffffff1660e01b815260040161167c9493929190612c55565b602060405180830381600087803b15801561169657600080fd5b505af19250505080156116c757506040513d601f19601f820116820180604052508101906116c49190612cb6565b60015b61174a573d80600081146116f7576040519150601f19603f3d011682016040523d82523d6000602084013e6116fc565b606091505b50600081511415611742576040517f08c379a000000000000000000000000000000000000000000000000000000000815260040161173990612a6e565b60405180910390fd5b805181602001fd5b63150b7a0260e01b7bffffffffffffffffffffffffffffffffffffffffffffffffffffffff1916817bffffffffffffffffffffffffffffffffffffffffffffffffffffffff19161491505061179f565b600190505b949350505050565b6117b18383611825565b6117be6000848484611610565b6117fd576040517f08c379a00000000000000000000000000000000000000000000000000000000081526004016117f490612a6e565b60405180910390fd5b505050565b6000808273ffffffffffffffffffffffffffffffffffffffff163b119050919050565b600073ffffffffffffffffffffffffffffffffffffffff168273ffffffffffffffffffffffffffffffffffffffff161415611895576040517f08c379a000000000000000000000000000000000000000000000000000000000815260040161188c90612d2f565b60405180910390fd5b61189e8161159a565b156118de576040517f08c379a00000000000000000000000000000000000000000000000000000000081526004016118d590612d9b565b60405180910390fd5b6118ea60008383611606565b6001600360008473ffffffffffffffffffffffffffffffffffffffff1673ffffffffffffffffffffffffffffffffffffffff168152602001908152602001600020600082825461193a919061293a565b92505081905550816002600083815260200190815260200160002060006101000a81548173ffffffffffffffffffffffffffffffffffffffff021916908373ffffffffffffffffffffffffffffffffffffffff160217905550808273ffffffffffffffffffffffffffffffffffffffff16600073ffffffffffffffffffffffffffffffffffffffff167fddf252ad1be2c89b69c2b068fc378daa952ba7f163c4a11628f55a4df523b3ef60405160405180910390a46119fb6000838361160b565b5050565b828054611a0b906121ad565b90600052602060002090601f016020900481019282611a2d5760008555611a74565b82601f10611a4657805160ff1916838001178555611a74565b82800160010185558215611a74579182015b82811115611a73578251825591602001919060010190611a58565b5b509050611a819190611a85565b5090565b5b80821115611a9e576000816000905550600101611a86565b5090565b6000604051905090565b600080fd5b600080fd5b60007fffffffff0000000000000000000000000000000000000000000000000000000082169050919050565b611aeb81611ab6565b8114611af657600080fd5b50565b600081359050611b0881611ae2565b92915050565b600060208284031215611b2457611b23611aac565b5b6000611b3284828501611af9565b91505092915050565b60008115159050919050565b611b5081611b3b565b82525050565b6000602082019050611b6b6000830184611b47565b92915050565b600081519050919050565b600082825260208201905092915050565b60005b83811015611bab578082015181840152602081019050611b90565b83811115611bba576000848401525b50505050565b6000601f19601f8301169050919050565b6000611bdc82611b71565b611be68185611b7c565b9350611bf6818560208601611b8d565b611bff81611bc0565b840191505092915050565b60006020820190508181036000830152611c248184611bd1565b905092915050565b6000819050919050565b611c3f81611c2c565b8114611c4a57600080fd5b50565b600081359050611c5c81611c36565b92915050565b600060208284031215611c7857611c77611aac565b5b6000611c8684828501611c4d565b91505092915050565b600073ffffffffffffffffffffffffffffffffffffffff82169050919050565b6000611cba82611c8f565b9050919050565b611cca81611caf565b82525050565b6000602082019050611ce56000830184611cc1565b92915050565b611cf481611caf565b8114611cff57600080fd5b50565b600081359050611d1181611ceb565b92915050565b60008060408385031215611d2e57611d2d611aac565b5b6000611d3c85828601611d02565b9250506020611d4d85828601611c4d565b9150509250929050565b600080600060608486031215611d7057611d6f611aac565b5b6000611d7e86828701611d02565b9350506020611d8f86828701611d02565b9250506040611da086828701611c4d565b9150509250925092565b600060208284031215611dc057611dbf611aac565b5b6000611dce84828501611d02565b91505092915050565b611de081611c2c565b82525050565b6000602082019050611dfb6000830184611dd7565b92915050565b611e0a81611b3b565b8114611e1557600080fd5b50565b600081359050611e2781611e01565b92915050565b60008060408385031215611e4457611e43611aac565b5b6000611e5285828601611d02565b9250506020611e6385828601611e18565b9150509250929050565b600080fd5b600080fd5b7f4e487b7100000000000000000000000000000000000000000000000000000000600052604160045260246000fd5b611eaf82611bc0565b810181811067ffffffffffffffff82111715611ece57611ecd611e77565b5b80604052505050565b6000611ee1611aa2565b9050611eed8282611ea6565b919050565b600067ffffffffffffffff821115611f0d57611f0c611e77565b5b611f1682611bc0565b9050602081019050919050565b82818337600083830152505050565b6000611f45611f4084611ef2565b611ed7565b905082815260208101848484011115611f6157611f60611e72565b5b611f6c848285611f23565b509392505050565b600082601f830112611f8957611f88611e6d565b5b8135611f99848260208601611f32565b91505092915050565b60008060008060808587031215611fbc57611fbb611aac565b5b6000611fca87828801611d02565b9450506020611fdb87828801611d02565b9350506040611fec87828801611c4d565b925050606085013567ffffffffffffffff81111561200d5761200c611ab1565b5b61201987828801611f74565b91505092959194509250565b6000806040838503121561203c5761203b611aac565b5b600061204a85828601611d02565b925050602061205b85828601611d02565b9150509250929050565b600067ffffffffffffffff8211156120805761207f611e77565b5b61208982611bc0565b9050602081019050919050565b60006120a96120a484612065565b611ed7565b9050828152602081018484840111156120c5576120c4611e72565b5b6120d0848285611f23565b509392505050565b600082601f8301126120ed576120ec611e6d565b5b81356120fd848260208601612096565b91505092915050565b6000806040838503121561211d5761211c611aac565b5b600083013567ffffffffffffffff81111561213b5761213a611ab1565b5b612147858286016120d8565b925050602083013567ffffffffffffffff81111561216857612167611ab1565b5b612174858286016120d8565b9150509250929050565b7f4e487b7100000000000000000000000000000000000000000000000000000000600052602260045260246000fd5b600060028204905060018216806121c557607f821691505b602082108114156121d9576121d861217e565b5b50919050565b7f4552433732313a20617070726f76616c20746f2063757272656e74206f776e6560008201527f7200000000000000000000000000000000000000000000000000000000000000602082015250565b600061223b602183611b7c565b9150612246826121df565b604082019050919050565b6000602082019050818103600083015261226a8161222e565b9050919050565b7f4552433732313a20617070726f76652063616c6c6572206973206e6f7420746f60008201527f6b656e206f776e6572206e6f7220617070726f76656420666f7220616c6c0000602082015250565b60006122cd603e83611b7c565b91506122d882612271565b604082019050919050565b600060208201905081810360008301526122fc816122c0565b9050919050565b7f4552433732313a2063616c6c6572206973206e6f7420746f6b656e206f776e6560008201527f72206e6f7220617070726f766564000000000000000000000000000000000000602082015250565b600061235f602e83611b7c565b915061236a82612303565b604082019050919050565b6000602082019050818103600083015261238e81612352565b9050919050565b7f4552433732313a20696e76616c696420746f6b656e2049440000000000000000600082015250565b60006123cb601883611b7c565b91506123d682612395565b602082019050919050565b600060208201905081810360008301526123fa816123be565b9050919050565b7f4552433732313a2061646472657373207a65726f206973206e6f74206120766160008201527f6c6964206f776e65720000000000000000000000000000000000000000000000602082015250565b600061245d602983611b7c565b915061246882612401565b604082019050919050565b6000602082019050818103600083015261248c81612450565b9050919050565b7f4e487b7100000000000000000000000000000000000000000000000000000000600052603260045260246000fd5b600081905092915050565b7f7b226e616d65223a202200000000000000000000000000000000000000000000600082015250565b6000612503600a836124c2565b915061250e826124cd565b600a82019050919050565b60008190508160005260206000209050919050565b6000815461253b816121ad565b61254581866124c2565b945060018216600081146125605760018114612571576125a4565b60ff198316865281860193506125a4565b61257a85612519565b60005b8381101561259c5781548189015260018201915060208101905061257d565b838801955050505b50505092915050565b7f2d2d2d4e46542023000000000000000000000000000000000000000000000000600082015250565b60006125e36008836124c2565b91506125ee826125ad565b600882019050919050565b600061260482611b71565b61260e81856124c2565b935061261e818560208601611b8d565b80840191505092915050565b7f222c226465736372697074696f6e223a2022416e2065706963204e4654222c2060008201527f22696d616765223a2022697066733a2f2f000000000000000000000000000000602082015250565b60006126866031836124c2565b91506126918261262a565b603182019050919050565b7f227d000000000000000000000000000000000000000000000000000000000000600082015250565b60006126d26002836124c2565b91506126dd8261269c565b600282019050919050565b60006126f3826124f6565b91506126ff828661252e565b915061270a826125d6565b915061271682856125f9565b915061272182612679565b915061272d828461252e565b9150612738826126c5565b9150819050949350505050565b7f646174613a6170706c69636174696f6e2f6a736f6e3b6261736536342c000000600082015250565b600061277b601d836124c2565b915061278682612745565b601d82019050919050565b600061279c8261276e565b91506127a882846125f9565b915081905092915050565b7f4552433732313a207472616e736665722066726f6d20696e636f72726563742060008201527f6f776e6572000000000000000000000000000000000000000000000000000000602082015250565b600061280f602583611b7c565b915061281a826127b3565b604082019050919050565b6000602082019050818103600083015261283e81612802565b9050919050565b7f4552433732313a207472616e7366657220746f20746865207a65726f2061646460008201527f7265737300000000000000000000000000000000000000000000000000000000602082015250565b60006128a1602483611b7c565b91506128ac82612845565b604082019050919050565b600060208201905081810360008301526128d081612894565b9050919050565b7f4e487b7100000000000000000000000000000000000000000000000000000000600052601160045260246000fd5b600061291182611c2c565b915061291c83611c2c565b92508282101561292f5761292e6128d7565b5b828203905092915050565b600061294582611c2c565b915061295083611c2c565b9250827fffffffffffffffffffffffffffffffffffffffffffffffffffffffffffffffff03821115612985576129846128d7565b5b828201905092915050565b7f4552433732313a20617070726f766520746f2063616c6c657200000000000000600082015250565b60006129c6601983611b7c565b91506129d182612990565b602082019050919050565b600060208201905081810360008301526129f5816129b9565b9050919050565b7f4552433732313a207472616e7366657220746f206e6f6e20455243373231526560008201527f63656976657220696d706c656d656e7465720000000000000000000000000000602082015250565b6000612a58603283611b7c565b9150612a63826129fc565b604082019050919050565b60006020820190508181036000830152612a8781612a4b565b9050919050565b6000612a9982611c2c565b91507fffffffffffffffffffffffffffffffffffffffffffffffffffffffffffffffff821415612acc57612acb6128d7565b5b600182019050919050565b7f4e487b7100000000000000000000000000000000000000000000000000000000600052601260045260246000fd5b6000612b1182611c2c565b9150612b1c83611c2c565b925082612b2c57612b2b612ad7565b5b828204905092915050565b6000612b4282611c2c565b9150612b4d83611c2c565b925082612b5d57612b5c612ad7565b5b828206905092915050565b6000612b7382611c2c565b9150612b7e83611c2c565b9250817fffffffffffffffffffffffffffffffffffffffffffffffffffffffffffffffff0483118215151615612bb757612bb66128d7565b5b828202905092915050565b60006060820190508181036000830152612bdc8186611bd1565b9050612beb6020830185611dd7565b612bf86040830184611cc1565b949350505050565b600081519050919050565b600082825260208201905092915050565b6000612c2782612c00565b612c318185612c0b565b9350612c41818560208601611b8d565b612c4a81611bc0565b840191505092915050565b6000608082019050612c6a6000830187611cc1565b612c776020830186611cc1565b612c846040830185611dd7565b8181036060830152612c968184612c1c565b905095945050505050565b600081519050612cb081611ae2565b92915050565b600060208284031215612ccc57612ccb611aac565b5b6000612cda84828501612ca1565b91505092915050565b7f4552433732313a206d696e7420746f20746865207a65726f2061646472657373600082015250565b6000612d19602083611b7c565b9150612d2482612ce3565b602082019050919050565b60006020820190508181036000830152612d4881612d0c565b9050919050565b7f4552433732313a20746f6b656e20616c7265616479206d696e74656400000000600082015250565b6000612d85601c83611b7c565b9150612d9082612d4f565b602082019050919050565b60006020820190508181036000830152612db481612d78565b905091905056fe416e204e465420772f20494420257320686173206265656e206d696e74656420746f2025734142434445464748494a4b4c4d4e4f505152535455565758595a6162636465666768696a6b6c6d6e6f707172737475767778797a303132333435363738392b2fa2646970667358221220e8b1ad75ff0dddb7a559fb935ccded67e071714f689116391e4687768d47e91464736f6c63430008090033",
  "linkReferences": {},
  "deployedLinkReferences": {}
}